:020000040800F2
:1000000000000220AD7D0008197E0008197E00085E
:10001000197E0008197E0008197E00080000000003
:10002000000000000000000000000000197E000831
:10003000197E000800000000197E0008197E0008E3
:10004000197E0008197E0008197E0008197E000834
:10005000197E0008197E00085D610008197E0008FD
:10006000197E0008197E0008197E0008197E000814
:10007000197E0008197E0008197E0008197E000804
:10008000197E0008197E0008197E0008197E0008F4
:10009000197E0008197E0008197E0008197E0008E4
:1000A000197E0008197E0008197E0008197E0008D4
:1000B000197E0008197E0008197E0008197E0008C4
:1000C000197E0008197E0008197E0008197E0008B4
:1000D000197E0008B14B0008197E0008197E00083F
:1000E000197E0008197E0008197E0008197E000894
:1000F000197E0008197E0008197E0008197E000884
:10010000197E0008197E0008197E0008197E000873
:10011000197E0008197E0008197E0008197E000863
:10012000197E0008197E0008197E0008197E000853
:10013000197E0008197E0008197E0008197E000843
:10014000197E0008197E0008197E0008197E000833
:10015000197E0008197E0008197E0008197E000823
:10016000197E0008197E0008197E0008197E000813
:10017000197E0008197E0008197E0008197E000803
:08018000197E0008197E000839
:10019000002A01D002F5807A704700BF162031A1F5
:1001A000ABBE30484168002901D0364A1160016871
:1001B000002901D1324901608168C2682A4B0029B7
:1001C00000D00B469D46FFF7E3FF00218B460F460C
:1001D0002648274A121A06F0CBFF07F0EFFC15203D
:1001E0002649ABBE25490968002001B40B780131CE
:1001F000002B15D0202BF9D0222B01D0272B01D199
:100200001A0001E02022013902B401300B780131DB
:10021000002B05D09A42F9D100224B1E1A70E5E757
:100220006946020092006A446B469A4206D9043A33
:1002300014681D6815601C600433F6E76C460725DA
:10024000AC43A54604000D000A48002802D00A4825
:10025000AFF3008007F038F82000290003F0AEFF6C
:1002600006F0E4FD000000200000000098010020DE
:100270007C4A012000000000000000001001002066
:100280007C4A01208C01002001460068A0B1024692
:1002900001E03A2B05D012F8013B1F2BF9D80020C2
:1002A000704790F800C0ACF1300C5FFA8CF3092B6A
:1002B00002D8831C9A4202D04FF0FF30704760464C
:1002C0000128F9DC0A60704738B50D4640B1036873
:1002D00004462BB11A781AB18188DA88914203D08A
:1002E000092000232B6038BD587803F097FD10F0EB
:1002F0000100F5D12368F5E738B5C3780BB90020C4
:1003000038BD00F13405026B0446012340782946CC
:1003100003F082FE80B9216B636AE269E070CB1A58
:100320009342ECD2A378022BE9D10A4460780123EE
:10033000294603F071FEE2E7012038BD2DE9F843BC
:10034000002407688C758369002B4CD0C36A013385
:1003500006460D461CD0F9680B88ABB103F5205258
:1003600092B2B2F5006F4FF002086FD300204FF445
:10037000697143EA004002F0E3FCFF28C4F1FF0981
:100380004ED9B9F1010F6AD800242C440023A3757B
:10039000F16900244A1E01F10A0604E0281901341B
:1003A0004372B24212D0104612F8013F202BA0F146
:1003B0000700F6D0052B08BFE5238842EED10B2CB1
:1003C000ECD828192E2747720134E7E72B190022B1
:1003D0005A72AA7D4AB1CB7A2B72CB692B60CB8A39
:1003E000EB800B8BAB80BDE8F883002C3DD06B7AA3
:1003F00005F10900002B43D0A3F14104192C08D8C2
:10040000092A0E7B34BF0824102426421CBF203347
:10041000DBB2437310F8013F0132002BECD127E02F
:100420000028B1D0B9F1000FAED02B199875012377
:10043000F9681C4431F8083008F10208002BA4D0F8
:1004400003F5205292B2B2F5006F8FD231F8082036
:1004500008F10208002A97D01846134687E72A19A0
:10046000030A9375D0750223E2E73F23AB7501229F
:100470002A44002393750B7B002BACD16B72AAE747
:100480001A46F5E7F8B505460C46FFF735FF30BBD1
:10049000AB69A11E023B99423BBF6B89EE6A0646DF
:1004A00001FB036605F134072E634FF4007200214F
:1004B000384606F05DFE6B891C466BB1002402E0F5
:1004C00001349C4208D2012368783219394603F07E
:1004D000A3FD6B890028F3D0E01A18BF0120F8BDF6
:1004E00070B5C37804465BB92378032B23D0002270
:1004F0006078114603F0EAFD003818BF012070BD96
:1005000000F13405026B40780123294603F084FD95
:10051000002835D1216B636AE269E070CB1A9342FF
:10052000E2D2A378022BDFD10A4460780123294666
:1005300003F072FDD8E72579012DD8D104F13406F6
:100540004FF400720021304606F012FE0D4A62633D
:100550002269C4F82022226A60690B4BC4F8183261
:100560004AF655210132A4F832122B46C4F81C0277
:1005700022636078314603F04FFD00232371B6E714
:10058000012070BD5252614172724161026B8A4218
:1005900001D10020704770B5C37804460D4600F1C4
:1005A00034065BB9607801232A46314603F0E2FC49
:1005B00010B101204FF0FF35256370BD4078012355
:1005C000314603F029FD80B9216B636AE269E0706E
:1005D000CB1A9342E6D2A378022BE3D10A44607887
:1005E0003146012303F018FDDCE7012070BD00BF98
:1005F0002DE9F0470678022E04460D46174621D015
:10060000032E0CD0012E33D1416A05EB550801EBC6
:100610005821FFF7BBFF70B30120BDE8F087416AA6
:1006200001EBD511FFF7B2FF0028F5D1AD0004F1C1
:10063000340205F4FE750121535967F31B0353512E
:10064000E17012E0416A01EB1521FFF79FFF0028DE
:10065000E2D16D0004F1340305F4FF7559195F55BB
:10066000C7F3072201234A70E3700020BDE8F0873A
:100670000220BDE8F08708F10109EB07C8F308087C
:1006800004F1340AF9B24FEA592215D51AF80830A4
:1006900003F00F0343EA01130AF80830616AE670B9
:1006A00011442046FFF772FF0028B5D1C9F30801B5
:1006B0005144C7F3071314E00AF80810616AE670A2
:1006C00011442046FFF762FF0028A5D1C9F30809AD
:1006D000C7F303221AF8093023F00F030AEB0901CC
:1006E000134301220B70E270BFE700BF012919D943
:1006F000F8B5836999420C46054611D20378022B5E
:1007000021D0032B10D0012B0AD1416A04EB5407EE
:1007100001EB5721FFF73AFF10B34FF0FF30F8BD60
:100720000120F8BD01207047416A01EBD411FFF7A9
:100730002DFF0028F1D1A40004F4FE742544686B59
:1007400020F07040F8BD416A01EB1421FFF71EFF55
:100750000028E2D1630003F4FF732B44988EF8BDA8
:10076000C7F30803696A01372B4401EB5721284678
:1007700093F83460FFF70AFF0028CED1C7F30807CB
:100780002F4497F8343046EA0320E3074CBF0009B2
:10079000C0F30B00F8BD00BF0129F8B505680E468F
:1007A00028D9AB698B4225D90746114622BB28467A
:1007B00011E0FFF71DFFF0B9D5E90532911E8B421C
:1007C00005D22979013341F0010129716B61A242FF
:1007D0001FD9386826463146FFF788FF04460022B5
:1007E00031462846ACB1012C04D0631C13D0AB6950
:1007F0009E42DED30220F8BD012AFBD09342F9D9F4
:100800004FF0FF322846FFF7F3FE0028F3D1386897
:10081000E1E70020F8BD0120F8BD00BF2DE9F0415F
:1008200007680646884649BBD7E90452EDB90AB3C2
:10083000BB6901252C4606E0012812D0013053D0B7
:10084000AC4217D0BB6901349C4202D3012D11D0B8
:10085000022430682146FFF749FF0028ECD1012C23
:1008600047D801242046BDE8F081BB69AB42DED900
:10087000002ADFD100242046BDE8F0813846FFF78A
:1008800035FF01280446ECD9421C2DD0BB698342B8
:10089000F1D87A69002AEDD008F10104A34298BF8B
:1008A000022430682146FFF721FF0128D9D0431CDC
:1008B0001AD0BB691A4630B13D69012D04D9AB424B
:1008C00098BF4546B6E7ACB94546B3E7B8F1010F66
:1008D000C7D0BB699845C4D2224641463846FFF787
:1008E00087FEA0B10128BCD14FF0FF342046BDE8FF
:1008F000F081BA69A242B4D94FF0FF32214638469E
:10090000FFF776FE0028EDD1B8F1000FDED1D7E970
:100910000523023B9A423C6101D8013A7A613B7956
:1009200043F001033B71A6E72DE9F04383690569B4
:1009300083B0002B4BD02035B5F5001F47D2C5F34F
:10094000080806680446B8F1000F07D0343646445C
:100950002561E661002003B0BDE8F0830F464169E0
:100960000133836169B37389013B13EA5529EDD1E2
:100970003046FFF7BBFE012801462CD9421C2CD083
:10098000B369834211D807B361692046FFF746FF78
:10099000014620B301281ED0431C1ED001903046D2
:1009A000FFF770FDC8B9B36901996161023B023973
:1009B000994203D27289F36A01FB0239C4F8189094
:1009C000C4E73389B3EB551FC0D80023A3610420CB
:1009D00003B0BDE8F0830220BDE70120BBE707209C
:1009E000B9E700BF2DE9F04704460568A7694FF055
:1009F000FF094E46042005F1340837B32B6B9F42A4
:100A000009D02846FFF778FC00285AD00023A361BC
:100A1000BDE8F0872F63E1690A78002A61D0CB7ABC
:100A2000E52A03F03F03A37105D02E2A03D023F05B
:100A3000200008280DD1FF2600212046FFF774FF73
:100A40000028E3D1A769002FD8D1002849D1002080
:100A5000DEE70F2B53D1500640D5236991F80D9056
:100A6000E36202F0BF064B7B4B45E4D14B8B002B7E
:100A7000E1D10B78DFF8ACC0EF6823F04003013B15
:100A800003EB430203EB82030CF10D0E4FF0010A5E
:100A90001CF8010B524631F800A022B3FE2BCAD835
:100AA000E64527F813A003F10103F1D10A785206B5
:100AB00004D5FE2BBFD8002227F81320013EF6B242
:100AC000BAE7687801233A46414603F053FA002812
:100AD000A0D04FF0FF332B63012097E7B242AAD199
:100AE000C1E7042092E74FF6FF7003E01CF8012BEA
:100AF00031F802A082459ED1F445F7D1D6E76EB910
:100B000001F10B0011F8012BF30143EA560352FAED
:100B100083F38142DEB2F5D14E4598D04FF0FF33DA
:100B2000E36294E770860008B1F5001F41D2CA065F
:100B3000F8B50D4620D18168076805610646E9B120
:100B40007B89B5EB432F4FEA432434D3384607E083
:100B5000012811D9BB6983420ED9AC422CD8306828
:100B6000FFF7C4FD431C0146A5EB0405F0D10120AD
:100B7000F8BD0023C6E905130220F8BD3B78022B1F
:100B800012D83B89B3EB551FF6D9BB6AC6E90513EA
:100B9000002BF1D0C5F30802343703EB552317447B
:100BA000C6E906370020F8BDBB6A002BE9D019461C
:100BB000C6E702207047BB69023B8A1E9A42D8D220
:100BC0007889FB6A02FB0033E0E700BFC16A4B1C77
:100BD0002DE9F04705680669044631D105F134096D
:100BE0004FF00108E527D4F818A02B6B9A4528464A
:100BF0000DD0FFF781FB08B1BDE8F08768780123CD
:100C00005246494603F0B6F9A0B9C5F830A0E369E9
:100C10001F7085F803802369B3424FF0000120461E
:100C200014D2FFF781FE0028DDD0042808BF02207F
:100C3000BDE8F0874FF0FF332B630120BDE8F0875C
:100C4000FFF772FF0028C9D0BDE8F0870020BDE89B
:100C5000F08700BF2DE9F04F002187B005680446FA
:100C6000FFF762FF90B94FF0FF364FF0FF09E662E1
:100C700005F1340B4F46D4F818802B6B98450AD0F9
:100C80002846FFF739FB002838D0012007B0BDE81F
:100C9000F08FC5F83080E3691878002800F0A5804F
:100CA000DA7AE52802F03F01A17103D012070CD5D2
:100CB0000F292FD0E662FF2700212046FFF734FEE0
:100CC0000028D8D007B0BDE8F08F002F74D094F87A
:100CD0002B0010F00100EDD104F1200103F10B0C09
:100CE00001E0002AE6D113F8012B11F8017B6345DE
:100CF000A2EB0702F5D1002ADCD1C7E7687801230F
:100D00004246594603F036F90028C2D04FF0FF336F
:100D10002B63BAE794F82B205106CDD4420660D558
:100D2000226993F80D90E26200F0BF005A7B4A45B9
:100D300059D15A8B002A56D11F783A4A039407F0AA
:100D40003F07013F07EB470107EB8107E968059182
:100D50004FF00108CDE90195444604909A461546A6
:100D6000884615F8010B23463AF80040002B40D086
:100D7000FE2F204652D802F033F8814638F817008B
:100D800002F02EF8814507F1010747D1264BAB420F
:100D9000E7D19AF8003004985B06A046DDE901959A
:100DA000039C06D5B8F1000F03D0059B33F817302C
:100DB000CBB90138C7B27FE703F10B001A463946B9
:100DC00012F8017B4FEAC11848EA510857FA88F82F
:100DD00082425FFA88F1F3D189457FF478AF002031
:100DE00054E78742A2D0FF2766E7042007B0BDE89A
:100DF000F08FA0462A46DDF804900498DDE90254FD
:100E000053464FF6FF7703E012F8011B33F80180D9
:100E1000B845E8D104498A42F6D1CAE7DDE901952F
:100E2000039CE0E7708600087D8600082DE9F04FFE
:100E300090F82B6016F0A00189B040F0FE80D0F849
:100E400000A0DAF80C301A880546002A00F06F81FD
:100E500089461A4632F8021F09F101090029F9D121
:100E600005F12002019207CA0DF11408F40788E881
:100E7000070057D4B307574640F1DC80B54B09F162
:100E80000C08A3FB08384FEA980808F10108002174
:100E90002846FFF749FE834600283FD1044606E076
:100EA000A2B11C46FFF740FD002840F03081A9693F
:100EB0003846FFF76BFB012103460C442846002B04
:100EC00040F02F81EA691278E52AE9D1A045E9D1FD
:100ED000B8F10103009340F0B680A9695046FFF7CE
:100EE00055FB8346002840F01C8120225946E869C2
:100EF00006F03EF9EB690199013B05F12B0211F86F
:100F0000010B03F8010F9142F9D195F82B30E969F3
:100F100003F0180301220B738AF80320584609B026
:100F2000BDE8F08F402200968B4C019E85F82B2067
:100F3000012798E80700B446ACE803002CF8022B20
:100F4000110C052F8CF8001068D91A88002A65D07A
:100F50009C463B46102102F0010000EB4303D803FE
:100F600048BF634001394FEA5202F4D13CF8022FE6
:100F7000002AEFD1C646072001E010465B4603F089
:100F80000F0C0CF13001392988BF0CF137010F2B00
:100F90000EF8011D00F1FF324FEA131BEDD80DEBE7
:100FA00002037E2119731346C2B10023023812E0F6
:100FB00080290DD901F1200C9F295FFA8CFC03F1E7
:100FC000010102D9BCF11C0F02D8984206D00B4691
:100FD0000133934202D2F15C2029E9D11F332B4423
:100FE00002F120016944072A98BF11F8140CA3F1FB
:100FF0001E01A1EB05018CBF20200132072958708A
:1010000003F10103ECD92846FFF724FE834638B9E3
:101010000137642F7FD0DAF80C308AE73B46A9E726
:101020000428009E7FF47AAFB3072F6885F82B6001
:101030003FF524AF4FF0010829E74FF0060B584663
:1010400009B0BDE8F08F2969009B2846A1EB431148
:10105000FFF76AFD834600287FF460AF019A05F12F
:101060002B0112F8010B4FEACB1343EA5B0350FA52
:1010700083F38A425FFA83FBF3D1A9695046FFF7F5
:1010800085FA03460246002861D19DF80080E9698F
:10109000324ADAF80CE081F80DB008F1FF3404EBC5
:1010A000440004EB80040F20A1F80B004B8302F1F5
:1010B0000C0701264FF6FF794B45304601EB060C35
:1010C0000AD03EF814308B55180A8CF8010083BB07
:1010D000974209D012F8010F4FF6FF7301E012F8A2
:1010E000010F0B529742FAD148F040084FF001032C
:1010F00081F8008028468AF803300021FFF714FCAD
:10110000024620BB009B013B0093B6D1E5E60428D4
:1011100083467FF403AF4FF0070B584609B0BDE894
:10112000F08F4FF0010B584609B0BDE8F08F9146A3
:1011300096E6974204F1010402D012F8016FBBE772
:101140004B45D1D03EF81430002BCFD1CCE793469D
:10115000E4E600BF4FECC44E211001007086000889
:101160002DE9F04FD0F800A085B007460D4611F8E4
:10117000013B2F2BFAD05C2BF8D00023BB602A78E0
:101180001F2A40F25D815346DE680024A6F1020862
:10119000802A05F1010310461BD8002A44D14FF0E4
:1011A00004081A782F2A1D4603F10103F9D05C2A9E
:1011B000F7D04CB106EB440232F8023D202B01D0AF
:1011C0002E2B3DD1013CF7D13480062005B0BDE87F
:1011D000F08F9F2A03D92032D2B21C2A24D86B78F0
:1011E0003F2BF2D97E2B03D983F080037C2BECD8E4
:1011F00035F8020B40BA80B24FF4697101F0CAFDB4
:101200000028E2D01F2840F22E812F2800F0A58070
:101210005C2800F0A2807F2808D9FF2CD5D028F8C0
:10122000020F01342A78B3E71D46E5E7A74A2223D7
:1012300003E012F8013F002BEFD08342F9D1C4E75D
:101240004FF0000326F814303388202B06EB4401BE
:1012500040F0C080B31C0022184633F802CBBCF12A
:10126000200F914602F10102F6D009F1020948F07F
:1012700003085FFA88F80B4633F8022D2E2A01D0B6
:10128000013CF9D14FF020337B623B62C7F8273035
:101290000088A0B300212A4608238B460D4620284B
:1012A0004FD02E285DD09B4567D30B2B00F0EB80F1
:1012B0004C455BD048F003085FFA88F856D22946BF
:1012C000154697F82020E52A04BF052287F820203C
:1012D000082B64D001F00C030C2B66D001F0030343
:1012E000032B62D018F0020F09D101F0010348EA84
:1012F00003135FFA83F8490748BF48F0080887F8E6
:101300002B803846FFF7A6FC97F82B30002859D1E0
:101310005A073FF55BAFBB79DB0640F1B0803A6915
:101320009AF80010C2F308020AF1340313440329A7
:101330005A8B04BF9B8A42EA0342BA603B682A7810
:1013400022E748F003085FFA88F8494636F81100AA
:1013500001F101090028A2D1B1E72B464FF00008A6
:101360001FE74C45EDD10B2B00F08D80AD00EDB2A9
:1013700021460B234FF0080BE8E74C45F3D07F28BC
:101380002FD82B218142DFF848C105D01CF8011F5E
:1013900000295FD08142F9D1CDF8048033E0890083
:1013A00001F00C030C2BC9B29CD148F002085FFA83
:1013B00088F887F82B803846FFF74CFC97F82B30DD
:1013C0000028A5D004287FF401AF13F0040F08BF54
:1013D0000520FBE62E2B30464FF001097FF44BAF82
:1013E00045E748F00201CDE90232CBB2019301F0AA
:1013F000F7FC4FF4697101F0A3FCFF28DDE902322C
:101400000FD800285FD1019941F003015FFA81F8FC
:101410005F2007EB0B0C49468CF820000BF1010B09
:1014200094E7591E594547D907EB0B014FEA102C99
:10143000DDF8048081F820C00BF1010BC0B2E8E7B1
:1014400080230021384687F82B3005B0BDE8F04FE7
:10145000FFF76ABBA0F1410189B2192905D845F00F
:101460000205C0B2D5E72B4699E6A0F1610189B229
:1014700019299CBF203845F00105C0B2C9E70520F5
:1014800005B0BDE8F08F97F8203048F00308E52B51
:1014900029465FFA88F815467FF431AF052387F8AF
:1014A000203001F00C030C2B3FF47FAF01F003015F
:1014B00003293FF47AAF22E748F003085FFA88F87F
:1014C00049469B4642E7DDF804805AE7AC710108C3
:1014D000B871010870B54FF0FF360023B1420446E1
:1014E000C37006632FD1B4F832224AF655239A42CC
:1014F00035D194F8342002F11803DBB2012B03D963
:10150000EB2A01D0022070BD94F86A30462B07D137
:1015100094F86B30412B03D194F86C30542B22D0CB
:1015200004F1860211498B3400E038B912F8013B0E
:1015300011F8010BA242A3EB0000F6D1003818BF4E
:101540000120400070BD0D460A464078012304F199
:10155000340102F00FFD20B12663042070BD03208A
:1015600070BD2563BFE7002070BD00BFC0710108DA
:101570002DE9F041002384B00B6017460E46FEF7BC
:1015800083FE421C00F0C080DFF83C8258F82050F7
:101590000446002D00F0C08035602B7807F0FE0770
:1015A00063B1687802F03AFCC30707D417B1470764
:1015B00000F1AE80002004B0BDE8F081E0B200236D
:1015C0002B70687002F032FCC60700F1928017B1F0
:1015D000440700F19D8000212846FFF77BFF022889
:1015E0006CD0042800F09A80012898BF00267CD88F
:1015F000B5F83F30B3F5007F77D1B5F84A1001B99F
:10160000A96D95F84420E961531E012BAA706CD88E
:1016100095F841306B81002B67D0581E184264D179
:10162000B5F845402C8120075FD1B5F8470000B9D7
:10163000686DB5F842C0BCF1000F56D001FB02F254
:101640000CEB14171744B8424FD3C01B9842B0FBA1
:10165000F3FE4AD3594B9E4547D80CEB06034FF691
:10166000F57CE64537440EF102006BD840F6F57C78
:10167000E6452E62EF62A8616B6251D8ACB31344A9
:10168000AB6200F0010300EB400203F2FF1303EB37
:101690005203B1EB532F28D34FF0FF33C5E9043386
:1016A00080222A710121B8F80830454A2970013397
:1016B0009BB2A8F80830EB80EA607BE76C4605F542
:1016C000F97305F2322069461A7902B19A6841F835
:1016D000042B10338342F7D154F8046B032066B90E
:1016E00004AB9C42F8D1042818D00D2004B0BDE80A
:1016F000F081032004B0BDE8F08131462846FFF7B1
:10170000E9FE0128ECD873E70B2004B0BDE8F081B6
:101710000A2004B0BDE8F0810C20E7E70120E5E7EE
:10172000002CE2D01A44430003F2FF13B1EB532F15
:10173000AA62DAD34FF0FF338022C5E904332A715D
:101740000221B0E76B62B5F85E30EF622343A86117
:101750002E62CAD1830003F2FF132A6EAA62B1EB94
:10176000532FC2D34FF0FF33C5E90433B5F86430CB
:101770008022012B2A7101D0032194E7711C284695
:10178000FEF704FF0028F7D1B5F8321228714AF6A7
:1017900055229142F0D16A6B0A4B9A42ECD103F187
:1017A000FF53D5F8182203F5005320339A42E3D1B2
:1017B000D5E98732C5E90423DEE700BFF5FFFF0F57
:1017C000A4010020525261419801002010B584B05C
:1017D0001446019003A800910391FEF755FD431CA8
:1017E00016D00D4A52F820300BB100211970019B20
:1017F0000BB10021197042F8203014B9204604B012
:1018000010BD002201A96846FFF7B2FE04B010BD6A
:101810000B2004B010BD00BF980100202DE9F04757
:1018200090B00191002800F0A48002F03F07164616
:1018300004463A4603A901A8FFF79AFE054628B1D7
:1018400000232360284610B0BDE8F0870023DDF8B0
:101850000C808DF8160001990B9304A8CDF8108028
:10186000FFF77EFC06F01C03B8BB9DF93B20002A65
:10187000C0F284809DF816A0DDF82C9093B31AF086
:10188000110F7DD1730700F18E80300732D598F8A3
:101890000030B9F81A60032B04BFB9F8143046EAD7
:1018A000034602F089FC202389F80B300023A9F8B5
:1018B0001A30C9F80E0098F80020032A08BFA9F8CA
:1018C000143000220123C9F81C2088F80330002EB0
:1018D00040F08B8047F040070CE00BB1042853D058
:1018E0000546ADE71AF0100F4CD1B10702D51AF03A
:1018F000010F45D1D8F83030C4E9083998F80030E4
:10190000B9F81A60032B04BFB9F8143046EA03464D
:10191000A660D9F81C90B8F80630C4F80C900021E5
:1019200004F1280A4FF40072C4F80080A3802774E1
:101930006174E1616161504605F01AFCBA0681D517
:10194000B9F1000F3FF47EAFB8F80A70C4F81490F4
:101950007F02B945314628D92068FEF7C7FE012825
:101960000646A9EB07091BD9431CF2D1A06101254A
:1019700066E70925284610B0BDE8F08706255FE731
:1019800007255DE704255BE704A8FFF74FFA47F05A
:1019900008070028A4D19DF816A0DDF82C9076E762
:1019A000A06102254CE708254AE7C9F30803A661B0
:1019B000002B3FF447AFD8F81830023E023B9E425E
:1019C000EFD2B8F80A20D8F82C3006FB0232002AF1
:1019D000E7D002EB5922E26198F801005146012359
:1019E00002F0C8FA0028C2D12CE704A831468DF8CD
:1019F00016A0CDF82C90D8F830A0FEF7CDFE002828
:101A00007FF46EAF51464046FEF7C0FD013EC8F878
:101A1000106000283FF45EAFA9E700BF2DE9F04F4A
:101A20001E4685B000238846336003A905469146CB
:101A3000FEF74AFC002847D1687C002845D195F87C
:101A400010A01AF0010A00F097806969EF687F1A08
:101A50004F4528BF4F46002F37D00090C1F30800F4
:101A6000002849D1DDF80CB0BBF80A20013A12EA8F
:101A700051222DD0A869DBF818300238023B984279
:101A800034D2BBF80A10DBF82C4001FB00446CB3E5
:101A9000B7F5007F14444BD2EA69A2426ED095F9A3
:101AA0001030002B05F128016BDB9BF80100019140
:101AB0000123224602F05EFA019900284FD168699D
:101AC000EC61C0F3080019E0092005B0BDE8F08F13
:101AD00000294AD1A868012808D9431C3FD0DBF867
:101AE0001830A861023B02389842CAD3022420462B
:101AF0006C7405B0BDE8F08F05F128010B18C0F536
:101B00000070B84228BF384608F1FF321C1813F89D
:101B1000011B02F8011FA342F9D13368696903442C
:101B200001443F1A33608044696197D10098CCE743
:101B300002EB572088424FEA572988BFA1EB0209E0
:101B40009BF801004B462246414602F013FA30B999
:101B500095F91020002A22DB4FEA4920DDE7012316
:101B600050466B7405B0BDE8F08FA96928680192F2
:101B7000FEF7BCFD019AAEE70720A6E705F12801B4
:101B80009DE79BF801000191012302F045FA00282E
:101B9000E5D12B7C019903F07F032B7485E7EA697B
:101BA000121B4A45D8D208EB4222013A05F128011E
:101BB00005F50A7411F8013B02F8013FA142F9D181
:101BC000CAE700BF2DE9F04F984685B000230C46C8
:101BD000C8F8003003A905461746FEF775FB002834
:101BE0004FD195F81190B9F1000F4CD12A7C910793
:101BF00040F1C8806B69FB4228BFDF43002F70D0E3
:101C0000C3F30802002A42D1DDF80CA0BAF80A603A
:101C1000013E16EA53260FD1002B40F0AB80A86896
:101C2000002800F0978001285FD0431C00F09A80C4
:101C3000AB68A861002B7AD095F91030002B7BDBC4
:101C4000AB69DAF81820023B023A93424DD2BAF857
:101C50000A10DAF82C2001FB0322002A45D0B7F540
:101C6000007F324449D2E9696B69914203D0E96847
:101C7000994200F28A8005F12806EA61C3F308025E
:101C800007E04FF00909484605B0BDE8F08F05F1BF
:101C90002806C2F5007BBB4502F1FF3228BFBB46D8
:101CA00006EB020C214604EB0B0211F8013B0CF889
:101CB000013F9142F9D12B7C63F07F032B741446D2
:101CC000D8F800206B695A44C8F80020EA685B44E1
:101CD0009A4238BF1A46B7EB0B076B61EA608FD1A7
:101CE0002A7C42F040022A74CDE74FF002094846B0
:101CF00085F8119005B0BDE8F08F06EB57238B42B5
:101D00004FEA572B88BFA1EB060B9AF8010001920E
:101D10005B46214602F080F920BBEB69019A9B1AD1
:101D20005B4540D304EB4B224FEA4B2BC7E795F9B9
:101D30001030A860002B83DAEA699AF801000123C9
:101D400005F1280102F068F960B92B7C03F07F03EC
:101D50002B7475E731462846FEF760FD00287FF4B6
:101D600062AFBDE74FF00109484685F8119005B014
:101D7000BDE8F08FA9692846FEF750FD00287FF4E2
:101D800052AFADE74FF007097DE705F128069AF855
:101D9000010001920123314602F0ECF80028E1D164
:101DA0006B69019A69E704EB432305F1270203F508
:101DB000007013F8011B02F8011F8342F9D12B7C3C
:101DC00003F07F032B74ADE708B3036870B50446D6
:101DD0002BB11A781AB18188DA88914201D0092092
:101DE00070BD587802F01AF8C207F8D4237C13F0BB
:101DF0004000F5D01B0626680BD402F0DDF9216AFD
:101E000005463046FEF7C2FB88B1012070BD0920AF
:101E10007047E2697078012304F1280102F0FCF8B0
:101E20000028F2D1237C03F07F032374E5E7636A83
:101E3000DA7A42F02002DA72A26821689A76C2F356
:101E40000720D8760978032903D1120C1A75120AD3
:101E50005A75E268DA610022C3F816505A820123EB
:101E6000F3703046FEF73CFB237C23F040032374E1
:101E700070BD00BF10B582B00446FFF7A5FF08B1E2
:101E800002B010BD01A92046FEF71EFA10B920606D
:101E900002B010BD092002B010BD00BF2DE9F04313
:101EA00083B00E4601A90446FEF70EFA98B994F8DD
:101EB0001180B8F1000F0AD1E2686369B24203D21F
:101EC000217C88070DD41646002161615EB9404629
:101ED00003B0BDE8F0834FF00908404603B0BDE809
:101EE000F083C4F81480DDF80490B9F80A707F021A
:101EF00013BBA56875B93AE0FEF790FC05460028CB
:101F000000F08C806B1C2DD0012D37D9D9F81830FA
:101F1000AB4233D96369A561B74269D2227C3B44A5
:101F20009207294620466361A6EB0706E4D42068A1
:101F3000FEF7DCFB0546E5E7013B711EB3FBF7F05E
:101F4000B1FBF7F18142D4D37942A5690B406361BB
:101F5000002D3FD19A42BAD2227CE36042F0400386
:101F60002374B4E74FF0010884F81180AFE72946E5
:101F70002046FEF753FC0128054604D14FF0020825
:101F800084F81180A3E7411CECD06369A060A061D4
:101F90000028C1D1E1689942C3F3080204D2E3608A
:101FA000237C43F040032374002A90D0E269AA42C4
:101FB0008DD094F91030019F002B04F128060BDB23
:101FC0007878314601232A4601F0D4FF0028C9D190
:101FD000E5617CE7F61A9FE778780123314602F045
:101FE0001BF80028BED1237C03F07F032374E7E7AE
:101FF0003344C6F30802636192B1D9F81820023D58
:10200000023A9542BAD2B9F80A10D9F82C2005FB49
:102010000125002DB2D005EB5625BBE76369B9E772
:102020001546B7E730B585B0019100282ED004469B
:10203000002203A901A8FFF79BFA18B1002323602F
:1020400005B030BD039D019925602046FFF788F853
:10205000C0B994F92B30002B0BDBA379DB0618D524
:102060002978E2690329538B04BF928A43EA024329
:10207000A360EB88A38000212046FEF755FD0028D1
:10208000DED0DBE7042808BF0520D7E7092005B02C
:1020900030BD0520D2E700BF98B1036810B50446F3
:1020A0002BB11A781AB18188DA88914201D00920BF
:1020B00010BD587801F0B2FE10F00100F7D1206099
:1020C00010BD0920704700BF50B3036870B50446C7
:1020D00033B11A7822B1DA880D468188914201D055
:1020E000092070BD587801F099FEC307F8D48DB16E
:1020F0002046FEF777FC10F0FB06F2D12946204679
:10210000FEF71CF931462046FEF70EFC042808BFF6
:10211000002070BD29462046BDE87040FEF704BD92
:102120000920704730B58FB00D460190002202A9FA
:1021300001A8FFF71DFA044610B120460FB030BDCC
:10214000019902A8FFF70CF804460028F5D19DF983
:102150003330002B06DB002DEFD0294602A8FEF716
:10216000EDF8EAE70624E8E72DE9F04784B0884671
:102170000190144603A9002201A8FFF7F9F90746C8
:1021800040B9039D2560D5E90536B21E934205D8B6
:10219000C8F80030384604B0BDE8F0872B78012B32
:1021A0001ED0696A04468146ACB3022B05EB0402DB
:1021B0002BD0526B32F0704208BF09F10109043490
:1021C000013EC4F30804EFD1C8F800902B79C5F89C
:1021D000149043F0010338462B7104B0BDE8F0873A
:1021E0000224814607E0012820D008B909F101093D
:1021F000AB69A342E8D921462846FEF777FA431C8B
:1022000004F10104EFD10127DEE7928E0AB909F14A
:1022100001090234D4E7284601F1010AFEF7B6F9B4
:1022200010B92B785146C0E70746CDE70227CBE728
:1022300070B540B1036804462BB11A781AB1818891
:10224000DA88914202D00925284670BD587801F0FD
:10225000E5FDC007F7D4657C002DF5D1237C9907F7
:1022600022D56369E2689342EED22668F3B9A16889
:102270002A462046FEF790FAA5606369E360237C56
:1022800043F04003237400283AD11B06DCD5E269F1
:102290007078012304F1280101F0BEFE30BB237CDD
:1022A00003F07F032374CFE70725CDE7A16930460C
:1022B000FEF71CFA421C13D0012808D0B3698342F0
:1022C00017D90146A2692046FEF766FAD5E7237CB6
:1022D0006269E26043F04003022523746574B3E74A
:1022E000237C6269E26043F0400323740125657436
:1022F000AAE7237C6269E26043F040032374C4E7E9
:1023000005466574A0E700BF30B59DB0022201907C
:1023100003A901A8FFF72CF908B11DB030BD039C3B
:102320000199049404A8FEF71BFF0028F5D19DF93C
:102330003B30002B1EDB9DF81630DA072BD42178BA
:102340000B9A0329558B04BF928A45EA0245DB06A6
:1023500012D404A8FEF73AFC0028DED135B10246BB
:10236000294604A8FEF718FA0028D6D12046FEF721
:10237000B7F8D2E70620D0E7002110A810941295F4
:10238000FEF7D2FB0028C8D110A8FEF72BFB10B136
:102390000428C2D1DDE70720BFE700BF2DE9F047E1
:1023A00090B00222019003A901A8FFF7E1F80446CA
:1023B00018B1204610B0BDE8F087039E019904963D
:1023C000054604A8FEF7CCFE0446B8B10428F0D1B7
:1023D000294604A8FEF722FA73895B020546079393
:1023E00088B101287DD0431C11D101F0E5FE012404
:1023F0000022294604A8FEF7CFF9DAE70824204690
:1024000010B0BDE8F087072401F0D6FEF0E73046B3
:10241000FDF772FF044601F0CFFE0746002CE6D11F
:1024200029463046FEF72EF80028E0D13078C6F86D
:102430004A704FF020327263B2632E21C6F83B20FF
:102440005FFA85F81022C5F30729032806F1340343
:1024500086F8341086F83F2086F84E8086F84F9034
:1024600041D05868D3F808C0D3F80CE0746B746599
:10247000C6F860E0B065C6F85CC0069AD3F818C02C
:102480001C695869D3F81CE0C6F86CC086F86E2049
:10249000C2F30722C6F870E07466B06686F855107D
:1024A00086F86F200123F37004A8FEF7BFFC0446F2
:1024B00000289DD10B9BC3F8167083F81A8083F80F
:1024C0001B903278032A03D12D0C2A0A1D755A75E8
:1024D00010210122D9723046F270FEF701F804464D
:1024E00067E7022490E725FA02F286F84820120AEC
:1024F00086F84920D3F804E0D3F808C0D3F80CA03C
:10250000069A746B7465C6F860A0C6F858E0C6F801
:102510005CC0D3F814E0D3F818C01C69D3F81CA031
:10252000C6F868E0100CC6F86CC086F8680086F83B
:102530006E20000AC2F30722C6F870A0746686F8FF
:10254000551086F86F2086F86900ABE730B5A5B066
:10255000019068460091FDF797FE022203A901A8A9
:10256000FFF706F808B125B030BD039C01990C9423
:102570000CA8FEF7F5FD0028F5D19DF85B3013F0AF
:10258000A00F76D1139D28686968AA68EB680DF1E1
:10259000100CACE80F0028696969AA69EB69ACE81E
:1025A0000F00E646BEE80F000DF1600CACE80F002E
:1025B000BEE80F00ACE80F009EE80F008CE80F00AB
:1025C000009918A8FEF7CCFD002854D00428CAD1E1
:1025D00018A8FEF72BFC0028C5D11F9BDDF81D2095
:1025E000C3F80D20DDF82120C3F81120DDF82520E7
:1025F000C3F81520BDF82D20DDF82910A3F81D2003
:102600009DF81B20C3F819109DF82F10D977D1061B
:1026100058BF42F020020121DA72E170DA7AD20664
:102620001DD51A9D0E9AAA4219D021785A8B0329DA
:1026300004BF9B8A42EA0342A369023A023B9A42E0
:1026400024D26389E16A02FB0311F9B12046FDF748
:102650009DFF002887D194F855302E2B18D00CA858
:10266000FEF7B4FA00287FF47EAF2046FDF738FF6E
:1026700079E7062077E71A9A0E9B9A4201D0082044
:1026800071E71C9A109B9A42F9D1A1E702206AE7F0
:10269000227884F86E50C5F30723032A84F86F303C
:1026A00005D12D0C2B0A84F8685084F86930012379
:1026B000E370D4E72DE9F041804682B017464E1E04
:1026C000054600240CE0FFF7A9F9019B012B0ED170
:1026D0009DF8003005F8013B0A2B04F1010411D0EC
:1026E000B44201AB4FF0010269463846EBDB0023F0
:1026F0002B701CB1404602B0BDE8F081204602B00C
:10270000BDE8F08100232B70F4E700BF30B597B02F
:102710000C4640220021054605A804F029FD0122AF
:1027200001AB05A92046CDE9032202948DF814508F
:10273000FFF748FA30B9039A019B9A4202D10498F4
:1027400017B030BD4FF0FF30FAE700BF30B5054697
:1027500097B00C464822002103A804F009FD2B780D
:102760000294002B34D0002106E00134CDE903248B
:10277000114615F8013FBBB101F158020DEB020003
:102780004A1C01F10102F4D03B29049C00F8443CAE
:10279000EBD1029801AB05A9FFF714FA019A3C3A74
:1027A00018BF4FF0FF32E0E74B1C0DD00A460298ED
:1027B00001AB05A9FFF706FA30B9039A019B9A42CB
:1027C00002D1049817B030BD4FF0FF3017B030BDC4
:1027D0001946EBE70EB42DE9F04FA0B029AE07463D
:1027E00056F8045B2C46002148220DA804F0C0FCDA
:1027F00014F8013B0D990C970296002B58D004AEAB
:10280000252B40F05B816B78302B00F08F812D2BD6
:1028100000F09081023500272A2B40F07381029A44
:1028200015F8013B1468101D029003F0DF024C2ADA
:1028300004BF15F8013B47F00407002B38D0A3F183
:102840006102192A9ABFA3F12000C0B21846A0F174
:102850004202162A18D8DFE812F07400580042002D
:1028600017001700170017001700170017001700B0
:10287000170017007F00170017001700F600170059
:102880004200170017008A000029C0F227810DEBD3
:1028900001024C1C3B2C0E9F82F83C3045DC01377A
:1028A000CDE90D4721462C4614F8013B002BA7D15A
:1028B0000029C0F230820A460C9803AB0FA9FFF73B
:1028C00081F9002840F027820D9A039B9A4240F03C
:1028D00022820E9820B0BDE8F04F03B07047029AF4
:1028E000944617F0040F5CF804EB40F06281442832
:1028F00040F01A82BEF1000FCDF808C07246C0F257
:1029000062814FF0000C0A203DE0029A002902F19A
:1029100004030293C0F2E2800DEB01034C1C126829
:102920000E9F83F83C203B2CB9DD03AB22460C986C
:102930000FA9FFF747F9039B1C1B18BF4FF0FF348B
:10294000ADE77A0740F15281029850F8042B0290CB
:102950004FF0000C022016E07A0740F13C8102980B
:1029600050F8042B02904FF0000C08200BE0780781
:1029700000F13481029A102002F1040C1268CDF8A3
:1029800008C04FF0000C782B0CBF4FF0270A4FF017
:10299000070AB6464FF000080197D34603E0202F00
:1029A00000F04F81B846B2FBF0F900FB1927FBB2EB
:1029B000092F88BF5B44924688BFDBB23033824523
:1029C0000EF8013B4A4608F10107E8D2BB46019FD9
:1029D000BCF1000F05D0EB442D238BF8103008F12B
:1029E000020B17F0010F0CBF4FF020084FF030081A
:1029F000BB0740F12B81DA46B34407E009F101033C
:102A0000CDE90D7339465E4500F0F38001F1800396
:102A100000296B4401F101070BF1FF3BF3DB9BF84D
:102A20000020DDF8389003F8442C3B2FE6DD03ABA3
:102A30003A460C980FA9FFF7C5F8039BDF1B18BF98
:102A40004FF0FF37DAE7029AD2F800A09AF8003088
:102A5000043207F002070292002B6FD052464FF06B
:102A6000000912F8010FCC4609F101090028F8D13C
:102A70000CF102084FB914E10BF10103CDE90D731C
:102A800039461AF8013F002B5ED001F1800200297F
:102A90006A4401F10107F4DB3B2FDDF838B002F89E
:102AA000443CE9DD03AB3A460C980FA9FFF78AF8DE
:102AB000039BDF1B18BF4FF0FF37DDE7002915DB55
:102AC0000DEB01024D1C3B2D0E9F82F83C3064DC67
:102AD0000137CDE90D5729462546E4E62B78002B32
:102AE00000F01981252B3FF48EAE6C1C25462B4639
:102AF00013F8012B002A3FF4DBAE252A3FF483AE06
:102B00001D46F4E7A3F13002092A4FF000043FF616
:102B10008CAE04EB840403EB440415F8013BA3F1F1
:102B20003002092AA4F13004F3D97EE6AB780127FC
:102B3000033571E6AB78022703356DE6002F00F010
:102B4000F58099464FF001084C457FF6ACAE4FF04A
:102B5000200AA14609E00134CDE90D743946C1458A
:102B600008F101037FF69FAE984601F1800300292A
:102B70006B4401F10107F2DB3B2F0E9C03F844ACE0
:102B8000E9DD03AB3A460C980FA9FFF71BF8039B4E
:102B9000DF1B18BF4FF0FF37DDE703AB2A460C9869
:102BA0000FA9FFF70FF8039B5D1B18BF4FF0FF3510
:102BB0008EE74428CDF808C072467FF4A2AEBEF17D
:102BC000000FBFF69EAECEF1000247F008074FF0AF
:102BD000080C0A20D7E6029A0820CDE6029850F8A1
:102BE000042B02904FF0000C1020CCE6029A022039
:102BF000C2E654450AF101077FF655AEA14609E049
:102C00000134CDE90D241146B94507F101033FF424
:102C10004AAE1F4601F1800300296B4401F1010215
:102C2000F2DB3B290E9C03F8448CE9D10C9803ABF2
:102C30000FA9FEF7C7FF039A3C3A18BF4FF0FF32C7
:102C4000DEE7BB464FF01F08019FC1E6A3450BF12D
:102C5000010967D204F1010A019508E00137CDE9C5
:102C60000D5729464C4509F1010318D0994601F149
:102C7000800300296B4401F10105F3DB3B2D0E9F1E
:102C800003F8448CEADD03AB2A460C980FA9FEF743
:102C900099FF039B5D1B18BF4FF0FF35DEE7019DD9
:102CA000AAE64C4547D9C1464FF0200B019508E0F4
:102CB0000137CDE90D5729464C4509F1010318D9D3
:102CC000994601F1800300296B4401F10105F3DB12
:102CD0003B2D0E9F03F844BCEADD03AB2A460C985B
:102CE0000FA9FEF76FFF039B5D1B18BF4FF0FF3569
:102CF000DEE7A4EB0809444538BF4FF000099AF815
:102D00000030019D08F10108C14409F10108002BC0
:102D10007FF4BBAE18E74FF0FF3020B0BDE8F04FB6
:102D200003B07047CA4667E60A2025E64FF001085F
:102D3000002CB8D1B7E5C1460CF10308A5E600BFE9
:102D40007F2801D880B27047B0F5803F02D2B1F53C
:102D5000697F01D00020704710B50C4C1FFA80FE2F
:102D600041F6DD4C00221020ACEB020302EB5303D2
:102D700034F82310714505D034BF1A469C460138FB
:102D8000F2D110BD024A32F8230010BDA8FC0008A1
:102D9000AAFC00087F2804D9B1F5697F02D0002081
:102DA0007047704710B50C4C41F6DD4E00211022E3
:102DB000AEEB010301EB530334F823C0844506D086
:102DC00034BF19469E46013AF2D1104610BD034A5F
:102DD00032F8230010BD00BF308900083289000896
:102DE000B0F5803F1DD230B584B2B4F5805F34BFFA
:102DF000224B234B04330DE08C4210D333F8022CCA
:102E00005FFA82FC0CEB010E70454FEA122209DBDF
:102E1000043382B133F8041C1D460029ECD120464E
:102E200030BD7047082AFAD8DFE802F0241E1B18CC
:102E300015120F0C080005EB4C03DBE7A4F5E35477
:102E4000A4B2ECE7503CA4B2E9E70834A4B2E6E748
:102E50001A3CA4B2E3E7303CA4B2E0E7203CA4B2C1
:102E6000DDE7103CA4B2DAE7631A03F00103E41AC9
:102E7000A4B2D4E7401A33F81040D0E73C870008EA
:102E8000808600082DE9F041A24F3A788446A24896
:102E9000002A00F025820CEB010E1CF8018B9F4EDE
:102EA00018F0800F40F0798112EE103A6FF38A2308
:102EB00002EE103A002340F60044C4F202046361BB
:102EC000C2EB0212910000F0798100BF0139FCD100
:102ED00039780568C1EB011145F48055890005601A
:102EE0004B1E7561002900F0748300BF013BFCD2CA
:102EF00039780568C1EB011189004A1E25F4805319
:102F000018F0400F0360736100F09E8112EE103ADA
:102F100043F4806302EE103A042340F60044C4F206
:102F200002046361002900F09E8100BF013AFCD2D7
:102F300039780568C1EB011145F4805589000560B9
:102F40004B1E756141B100BF013BFCD23978056869
:102F5000C1EB011189004A1E25F4805318F0200F9F
:102F60000360736100F05D8112EE103A43F48063F8
:102F700002EE103A042340F60044C4F202046361F6
:102F8000002900F05D8100BF013AFCD23978056864
:102F9000C1EB011145F48055890005604B1E756138
:102FA00041B100BF013BFCD239780568C1EB01118A
:102FB00089004A1E25F4805318F0100F03607361D6
:102FC00000F01C8112EE103A43F4806302EE103AD6
:102FD000042340F60044C4F202046361002900F0B7
:102FE0001C8100BF013AFCD239780568C1EB0111A0
:102FF00045F48055890005604B1E756141B100BFE5
:10300000013BFCD239780568C1EB011189004A1EE9
:1030100025F4805318F0080F0360736100F03A81C3
:1030200012EE103A43F4806302EE103A042340F6A5
:103030000044C4F202046361002900F03A8100BF39
:10304000013AFCD239780568C1EB011145F480558D
:10305000890005604B1E756141B100BF013BFCD288
:1030600039780568C1EB011189004A1E25F48053A7
:1030700018F0040F0360736100F0F98012EE103A4B
:1030800043F4806302EE103A042340F60044C4F295
:1030900002046361002900F0F98000BF013AFCD20C
:1030A00039780568C1EB011145F480558900056048
:1030B0004B1E756141B100BF013BFCD239780568F8
:1030C000C1EB011189004A1E25F4805318F0020F4C
:1030D0000360736100F0F18012EE103A43F48063F4
:1030E00002EE103A042340F60044C4F20204636185
:1030F000002900F0F18000BF013AFCD23978056860
:10310000C1EB011145F48055890005604B1E7561C6
:1031100079B105E018010020A40300200008024056
:1031200000BF013BFCD239780568C1EB0111890071
:103130004A1E25F4805318F0010F0360736144D0D8
:1031400012EE103A43F4806302EE103A042340F684
:103150000044C4F202046361002944D000BF013A74
:10316000FCD23A780568C2EB021245F48055920011
:103170000560531E75611AB100BF013BFCD20568A2
:1031800025F48055F4450560756135D01CF8018B38
:103190003A7818F0800F3FF487AE12EE103A43F4FD
:1031A000806302EE103A042340F60044C4F20204A5
:1031B0006361C2EB021291007FF487AE056845F4AB
:1031C000805575614FF0FF3298E612EE103A6FF3BA
:1031D0008A2302EE103A002340F60044C4F20204AF
:1031E00063610029BAD145F480557561F44525F431
:1031F000805505607561C9D1BDE8F08112EE103AC5
:103200006FF38A2302EE103A002340F60044C4F222
:103210000204636100297FF4E4AE45F480557561D2
:10322000F6E612EE103A6FF38A2302EE103A00230C
:1032300040F60044C4F20204636100297FF4A3AEA7
:1032400045F480557561B5E612EE103A6FF38A23A6
:1032500002EE103A002340F60044C4F20204636117
:1032600000297FF462AE45F48055756174E612EE74
:10327000103A6FF38A2302EE103A002340F600441E
:10328000C4F20204636100297FF407AF45F480555E
:10329000756119E712EE103A6FF38A2302EE103AC5
:1032A000002340F60044C4F20204636100297FF465
:1032B000C6AE45F480557561D8E612EE103A6FF34C
:1032C0008A2302EE103A002340F60044C4F20204BE
:1032D000636100297FF40FAF45F48055756128E7DD
:1032E000A74A0CEB0105E4E012EE103A43F48063C8
:1032F00002EE103A042340F60044C4F20204636173
:1033000000BF00BF00BF00BF036843F480530360E9
:10331000536100BF00BF00BF00BF03688C0623F4E9
:1033200080530360536140F13A8112EE103A43F446
:10333000806302EE103A042340F60044C4F2020413
:10334000636100BF00BF00BF00BF036843F4805348
:103350000360536100BF00BF00BF00BF036823F4D8
:10336000805303605361CB0640F10C8112EE103A9A
:1033700043F4806302EE103A042340F60044C4F2A2
:103380000204636100BF00BF00BF00BF036843F4D5
:1033900080530360536100BF00BF00BF00BF0368DC
:1033A0000F0723F480530360536140F1DB8012EE7A
:1033B000103A43F4806302EE103A042340F60044CE
:1033C000C4F20204636100BF00BF00BF00BF036816
:1033D00043F480530360536100BF00BF00BF00BFD0
:1033E00003684E0723F480530360536140F1AD80BE
:1033F00012EE103A43F4806302EE103A042340F6D2
:103400000044C4F20204636100BF00BF00BF00BFFC
:10341000036843F480530360536100BF00BF00BFE3
:1034200000BF03688C0723F48053036053617FD58A
:1034300012EE103A43F4806302EE103A042340F691
:103440000044C4F20204636100BF00BF00BF00BFBC
:10345000036843F480530360536100BF00BF00BFA3
:1034600000BF036823F4805303605361CB0752D538
:1034700012EE103A43F4806302EE103A042340F651
:103480000044C4F20204636100BF00BF00BF00BF7C
:10349000036843F480530360536100BF00BF00BF63
:1034A00000BF0368AC4523F48053036053613FF4CD
:1034B000A3AE1CF8011B0F067ED412EE103A6FF378
:1034C0008A2302EE103A002340F60044C4F20204BC
:1034D000636100BF00BF00BF00BF036843F48053B7
:1034E0000360536100BF00BF00BF00BF03684E060A
:1034F00023F48053036053613FF5F6AE12EE103AA9
:103500006FF38A2302EE103A002340F60044C4F21F
:1035100002046361F4E612EE103A6FF38A2302EEBE
:10352000103A002340F60044C4F202046361ABE7A2
:1035300012EE103A6FF38A2302EE103A002340F69F
:103540000044C4F2020463617EE712EE103A6FF3A6
:103550008A2302EE103A002340F60044C4F202042B
:10356000636151E712EE103A6FF38A2302EE103ACC
:10357000002340F60044C4F20204636123E700BF65
:103580000008024012EE103A6FF38A2302EE103A5E
:10359000002340F60044C4F202046361F2E612EE36
:1035A000103A6FF38A2302EE103A002340F60044EB
:1035B000C4F202046361C4E612EE103A43F480637D
:1035C00002EE103A042340F60044C4F202046361A0
:1035D0007FE74FF0FF3291E4F0B5844612EE103AE7
:1035E00043F4806302EE103A042340F60044C4F230
:1035F000020463616D4C2378002B40F0DD8000BF36
:1036000000BF00BF00BF6A4A6A486144146803698A
:1036100044F480541460446100BF00BF00BF00BF89
:10362000146824F480541460446100BF00BF00BFDC
:1036300000BF0469E60514684FEAD31344F48054CC
:1036400003F00203146048BF0133446100BF00BFB0
:1036500000BF00BF146824F480541460446100BFAC
:1036600000BF00BF00BF0469E50514684FEA4303CB
:1036700044F4805448BF0133146048BFDBB2446156
:1036800000BF00BF00BF00BF146824F48054146062
:10369000446100BF00BF00BF00BF04695B00E405D8
:1036A0001468DBB244F4805448BF0133146048BF4F
:1036B000DBB2446100BF00BF00BF00BF146824F448
:1036C00080541460446100BF00BF00BF00BF0469A4
:1036D0005B00E7051468DBB244F4805448BF013353
:1036E000146048BFDBB2446100BF00BF00BF00BF31
:1036F000146824F480541460446100BF00BF00BF0C
:1037000000BF04695B00E6051468DBB244F4805432
:1037100048BF0133146048BFDBB2446100BF00BF43
:1037200000BF00BF146824F480541460446100BFDB
:1037300000BF00BF00BF04695B00E5051468DBB291
:1037400044F4805448BF0133146048BFDBB2446185
:1037500000BF00BF00BF00BF146824F48054146091
:10376000446100BF00BF00BF00BF04695B00E40507
:103770001468DBB244F4805448BF0133146048BF7E
:10378000DBB2446100BF00BF00BF00BF146824F477
:1037900080541460446100BF00BF00BF00BF0CF83C
:1037A000013B8C457FF432AFF0BD00BF1801002013
:1037B000A403002000080240C3EB03139B0000BFDA
:1037C000013BFCD1AD4AAE4861441368066943F43D
:1037D0008055156045612578C5EB0515AD00C6F32C
:1037E000002E00F0588100BF013DFCD126781368FF
:1037F000C6EB061623F48053B6001360751E4361B2
:10380000002E00F04C8100BF013DFCD226780769F4
:103810001368C6EB061643F48053B6004FEA4E0E0B
:10382000FF05136006F1FF3548BF0EF1010E43613D
:10383000002E00F03E8100BF013DFCD226781368C7
:10384000C6EB061623F48053B6001360751E436161
:10385000002E00F0328100BF013DFCD207692678BE
:1038600013684FEA4E0E5FFA8EFEFF05C6EB061692
:1038700043F480534FEA860648BF0EF1010E1360F1
:1038800006F1FF3548BF5FFA8EFE4361002E00F05F
:103890001E8100BF013DFCD226781368C6EB0616D8
:1038A00023F48053B6001360751E4361002E00F0B0
:1038B000128100BF013DFCD20769267813684FEAE8
:1038C0004E0E5FFA8EFEFF05C6EB061643F48053DC
:1038D0004FEA860648BF0EF1010E136006F1FF3570
:1038E00048BF5FFA8EFE4361002E00F0FE8000BFED
:1038F000013DFCD226781368C6EB061623F48053EC
:10390000B6001360751E4361002E00F0F28000BF08
:10391000013DFCD20769267813684FEA4E0E5FFA24
:103920008EFEFF05C6EB061643F480534FEA86066B
:1039300048BF0EF1010E136006F1FF3548BF5FFA74
:103940008EFE4361002E00F0DE8000BF013DFCD200
:1039500026781368C6EB061623F48053B60013606E
:10396000751E4361002E00F0D28000BF013DFCD2E5
:103970000769267813684FEA4E0E5FFA8EFEFF0540
:10398000C6EB061643F480534FEA860648BF0EF195
:10399000010E136006F1FF3548BF5FFA8EFE4361EA
:1039A000002E00F0BE8000BF013DFCD226781368D7
:1039B000C6EB061623F48053B6001360751E4361F0
:1039C000002E00F0B28000BF013DFCD207692678CE
:1039D00013684FEA4E0E5FFA8EFEFF05C6EB061621
:1039E00043F480534FEA860648BF0EF1010E136080
:1039F00006F1FF3548BF5FFA8EFE4361002E00F0EE
:103A00009E8000BF013DFCD226781368C6EB0616E7
:103A100023F48053B6001360751E4361002E00F03E
:103A2000928000BF013DFCD20769267813684FEAF7
:103A30004E0E5FFA8EFEFF05C6EB061643F480536A
:103A40004FEA860648BF0EF1010E136006F1FF35FE
:103A500048BF5FFA8EFE4361002E7ED000BF013D5D
:103A6000FCD225781368C5EB051523F48056AD000C
:103A700016606B1E466145B104E000BFA403002040
:103A80000008024000BF013BFCD20CF801EB8C4562
:103A90007FF49BAE88E623F480531360436105698D
:103AA0004FEA4E0E43F48053ED0548BF0EF1010E70
:103AB000436123F480531360436105694FEA4E0E5E
:103AC000EE055FFA8EFE52D443F48053436123F433
:103AD00080531360436105694FEA4E0EEF055FFAAC
:103AE0008EFE50D443F48053436123F4805313601B
:103AF000436105694FEA4E0EED055FFA8EFE4ED426
:103B000043F48053436123F4805313604361056998
:103B10004FEA4E0EEE055FFA8EFE4CD443F480530E
:103B2000436123F480531360436105694FEA4E0EED
:103B3000EF055FFA8EFE4AD443F48053436123F4C9
:103B400080531360436105694FEA4E0EED055FFA3D
:103B50008EFE48D443F48053436123F480531360B2
:103B600043610CF801EB8C457FF42FAE1CE643F467
:103B7000805343610EF1010E23F4805313605FFA0A
:103B80008EFE4361A7E743F4805343610EF1010EBB
:103B900023F4805313605FFA8EFE4361A9E743F478
:103BA000805343610EF1010E23F4805313605FFADA
:103BB0008EFE4361ABE743F4805343610EF1010E87
:103BC00023F4805313605FFA8EFE4361ADE743F444
:103BD000805343610EF1010E23F4805313605FFAAA
:103BE0008EFE4361AFE743F4805343610EF1010E53
:103BF00023F4805313605FFA8EFE4361B1E700BF88
:103C0000F0B5064683B00F464FF47A74FF250121C4
:103C100001A88DF80450FFF7DFFC9DF80430FF2B5E
:103C200007D141F2707300BF013BFCD1013CEED1E2
:103C300001E0FE2B02D0002003B0F0BD3946304633
:103C4000FFF7CAFC01A80221FFF7C6FC012003B060
:103C5000F0BD00BF70B5064682B00D4641F2883413
:103C6000012101A8FFF7B8FC9DF80430FF2B09D013
:103C700041F2707300BF013BFCD1013CF0D1204602
:103C800002B070BD012101A88DF80450FFF7FAF8C9
:103C9000FD2D02D1012002B070BD30464FF40071FD
:103CA000FFF7F0F801A80221FFF796FC01A8012117
:103CB000FFF792FC9DF8040000F01F00A0F1050042
:103CC000B0FA80F0400902B070BD00BF30B5184DA9
:103CD000184A2B6883B023F400632B6001210DF197
:103CE00006005361FFF778FC41F2883401210DF1A1
:103CF0000700FFF771FC9DF80730FF2B14D041F24D
:103D0000707300BF013BFCD1013CEFD12B68094A25
:103D100043F400632B600DF1070053610121FFF7AD
:103D20005BFC204603B030BD012003B030BD00BFB6
:103D3000A40300200008024030B5030685B0044605
:103D40000D462ED40C2834D14C20090E2A0C2B0AF7
:103D50008DF808008DF809100124062102A88DF8BD
:103D60000C500DF107058DF80A208DF80B308DF8F9
:103D70000D40FFF787F821462846FFF72DFC0A245F
:103D800028460121FFF728FC9DF907209DF8070030
:103D9000002A04F1FF3302DA13F0FF04F0D105B07A
:103DA00030BD00213720FFF7C7FF0128F7D804F006
:103DB0007F04184A1849136843F40063136002A88B
:103DC0004B610121FFF708FCFFF780FF00B344F0CF
:103DD0004002002362F307032A0E62F30F232A0C2A
:103DE00062F317432A0A62F31F6302938DF80C50A3
:103DF0004CB99523062102A88DF80D300DF1070569
:103E0000FFF740F8BBE7082C0CBF87230123F1E73D
:103E1000FF20C4E7A40300200008024010B9024BB1
:103E20005878704701207047180100202DE9F041B3
:103E300082B0002834D14B4B00BF013BFCD14A4E2D
:103E40004A49326822F4805343F4006342F400622A
:103E50004A610A2433604B61012101A8FFF7BCFBD2
:103E6000611E11F0FF04F7D121462046FFF764FFE1
:103E70000128074619D0012533683D4F3B4A7D7024
:103E800043F40063336034710DF103005361012189
:103E9000FFF7A2FB002328463B7002B0BDE8F0818B
:103EA0000325284602B0BDE8F0814FF4D571082003
:103EB000FFF742FF012818D02146A920FFF73CFF59
:103EC00001289ABF4FF0A9080227B8464FF47A7527
:103ED00000214046FFF730FF20B34EF6602300BFBD
:103EE000013BFCD1013DF3D1C5E704210DEB0100FD
:103EF000FFF772FB9DF80630012BBCD19DF807300F
:103F0000AA2BB8D14FF47A754FF08041A920FFF762
:103F100013FF88B14EF6602300BF013BFCD1013D89
:103F2000F2D1A8E74FF400711020FFF705FF054616
:103F30000028A0D13C469FE701463A20FFF7FCFE4F
:103F40000746002897D104210DEB0100FFF744FB41
:103F50009DF8045015F0400502D03D460C248BE737
:103F6000042489E7C0270900A403002000080240B8
:103F7000180100202DE9F041244C94F801C00CF008
:103F8000010C50EA0C0082B03AD1214F1C463B791B
:103F90001B070D46114658BF5102022C34BF4FF08B
:103FA00011084FF012084046FFF7C6FE0646A8B1BA
:103FB000261E18BF01263B68164A43F400633B6087
:103FC0000DF1070001215361FFF706FB304602B0F7
:103FD000BDE8F081013C05F5007509D04FF4007192
:103FE0002846FFF70DFE0028F4D1261E18BF012633
:103FF000B8F1120FDFD100210C20FFF79DFEDAE7A8
:104000000326304602B0BDE8F08100BF1801002051
:10401000A403002000080240F0B5294C657805F0A3
:10402000010C50EA0C0083B032D1264E1C46337985
:1040300015461A0758BF6D02012C0F462CD013F0FD
:10404000060F30D129461920FFF776FEA0B1003CBB
:1040500018BF012433681C4A43F4006333600DF138
:10406000070001215361FFF7B7FA204603B0F0BD06
:10407000013C07F5007705D0FC213846FFF7EAFD43
:104080000028F5D1FD210020FFF7E4FD48B1DEE76F
:104090000324204603B0F0BD29461820FFF74CFE4C
:1040A00030B10124D6E721469720FFF745FEC9E746
:1040B000FE213846FFF7CEFD80F00104E4B2C9E7E7
:1040C00018010020A40300200008024030B5374B3F
:1040D0005B7803F0010350EA030487B019D101298A
:1040E00015461CD0032921D0B9B9FFF7EFFD80F0A8
:1040F0000100C4B22E4A2F48136843F400631360D2
:10410000012143610DF10700FFF766FA204607B071
:1041100030BD0324204607B030BD0424EAE7214621
:104120000920FFF709FE20B10124E3E78023136093
:10413000E0E7102102A88DF80F408DF810408DF8AF
:104140001140FFF75DFD0028EED09DF808209DF896
:104150000F309209012A1DD09DF80E109DF8100015
:104160009DF80D209B00890203EB901301F4406140
:104170000B449DF811109DF8120002F00F02490047
:1041800001F0060102EBD0120A440133073A9340D2
:104190002B60AFE7BDF810201B0452BA03F47C1368
:1041A00013FA82F301339B022B60A3E7180100206E
:1041B000A4030020000802400020704780B582B0B0
:1041C00000AF00F0EFF8674800F006FE664800F028
:1041D00003FE9FED660ADFED660A9FED661ADFEDCE
:1041E000661A9FED662ADFED662A9FED5E3ADFEDE7
:1041F0005E3A9FED644ADFED5D4A00F051F904201C
:1042000000F056FB604B5B6C5F4A43F480435364A1
:104210005E4B1B6A5D4A43F00103136200BF5B4BB8
:104220001B6A03F48073002BF9D001214FF4801036
:1042300001F09EF900F094FC00F0ECFB00F00CFCA7
:1042400000F0BAFB00F01EFC4FF4407000F0C6FE18
:104250004F4B00221A6000F02FFC4FF40D7200212A
:104260004C4802F085FF00224B494A48FDF7AEFA60
:1042700003467B707B78002B01D000BFFDE700F088
:10428000A7FC00F079FB00237B6000F0BBF97B68A2
:10429000002B18D00221414801F03AFF0346002BC1
:1042A00011D03E4801F07AFE03467B807B88FF2BCD
:1042B00001D9FF237B807A8813466FF3DF7304EE06
:1042C000903A00237B60364B1B68B3F1804FDED2FF
:1042D000334B1B6803F04053002BD8D0304B1B6886
:1042E00003F04053B3F1805F1AD0B3F1005F33D1D4
:1042F0002B4B1B6843F08043294A1360284B1B68F3
:104300001B0ADBB203F00F03DBB2254A1268D2B2FC
:104310001146184600F0DCFC214B00221A601FE019
:104320001F4B1B6843F080431D4A13601C4B1B68E6
:10433000DBB203F00303DBB20233D9B2072301225D
:10434000164801F0ADFD154801F0F8FD01237B6032
:10435000134B00221A6003E0114B00221A6000BFC9
:1043600095E700BF6048002000000010000000003A
:104370000100000000080240003C01400000100065
:10438000000002401000555500380240003801403E
:1043900010E000E0AC030020207001080020014084
:1043A00020010020DFF8500A016841F4700101602B
:1043B000BFF34F8FBFF36F8FDFF8400A01686FF3D1
:1043C0009F710160BFF34F8FBFF36F8F704700BFC6
:1043D0002DE9704183B00023264D01939C4605E0F2
:1043E0000CF1010CBCF10A0F35461FD040FA0CF35A
:1043F000DB0705F10406F3D502ACB646002214F83B
:10440000013D1EF8018D43441A44D3B2092BA3F198
:104410000A028ABFD3B20022012275452370EED171
:104420000CF1010CBCF10A0F3546DFD19DF80430C8
:10443000DBB99DF80530D3B99DF80630002B14BFC9
:104440000225032501A8C5F1040428440C440A46AA
:1044500010F8013B303302F8013B9442F8D1491B7C
:1044600000230B7103B0BDE870810025EAE7012548
:10447000E8E700BF2470010846F6824300FB03F31F
:1044800010B100BF013BFCD1704700BF914206D282
:10449000013811F8013B00F8013F8A42F9D1704719
:1044A00038B52949294C621A002A04DDA14202D2FA
:1044B000274803F00BFD274D2A1B002A05DDAC42DF
:1044C00003D22249244803F001FD244C621B002A38
:1044D00005DDA54203D21F49214803F0F7FC214D19
:1044E0002A1B002A05DDAC4203D21C491E4803F0FA
:1044F000EDFC1E4C621B002A05DDA54203D21949C2
:104500001B4803F0E3FC1B4D2A1B002A05DDAC42CF
:1045100003D21649184803F0D9FC184C621B002A34
:1045200005DDA54203D21349154803F0CFFC154B16
:104530001A1B002A07DD9C4205D2BDE838400F490E
:10454000114803F0C3BC38BD387101083871010847
:104550000000001038710108004000103871010897
:10456000008000103871010800C000103871010887
:104570006048002038710108608800203871010807
:1045800060C8002038710108600801200438032841
:104590009DBF034B03EB8003986A0120704700BF67
:1045A00024700108074B084A9B681068C3F3423324
:1045B000043B032B04D8054A52F82330B0FBF3F038
:1045C000704700BF003802401C0100204C700108F9
:1045D000094B0A4A9B681068C3F34233043B032B20
:1045E00008D8074A02EB83039B6AB0FBF3F0012B68
:1045F00018BF4000704700BF003802401C01002077
:104600002470010870B5324A324B116B3248334C7A
:10461000334D41F0010192B01163516C41F0100132
:104620005164196821F470111960196841F420115E
:104630001960596A21F47F615962596A41F4EE6147
:104640005962936802682748C3F34233043B032B43
:104650009CBF254951F82330244994BFB2FBF3F3A2
:10466000134603F59666A1FB0616C6F30F210181DA
:10467000818989B241F00C018181818989B241F03F
:1046800020018181818989B241F4005181812021F9
:104690006160360A412401880906FCD5848015F83A
:1046A000014F002CF7D11249009602A803F0D4FB69
:1046B0009DF8081049B10B4A02A813881B06FCD5C7
:1046C000918010F8011F0029F7D112B070BD00BF12
:1046D00000380240000002401C01002000E100E020
:1046E0005C700108001001404C700108B5814E1B40
:1046F0007870010870B52D4A2D4B116B2D482E4D49
:1047000041F0010192B01163516C41F0100151640C
:10471000196821F470111960196841F420111960A9
:10472000596A21F47F615962596A41F4EE61596214
:10473000936802682148C3F34233043B032B9CBFB8
:104740001F4951F823301F4994BFB2FBF3F31346BE
:1047500003F56144A1FB0414210C0181818989B214
:1047600041F4005141F02C01818120216960164DF6
:10477000260C552401880906FCD5848015F8014FC4
:10478000002CF7D11149009602A803F065FB9DF8B3
:10479000081049B1094A02A813881B06FCD591806C
:1047A00010F8011F0029F7D112B070BD0038024087
:1047B000000002401C01002000E100E00010014068
:1047C0004C700108C5B3A291AC7001087870010863
:1047D00070B5284A284B116B284C2948294D41F0C7
:1047E000010188B01163516C41F0100151641A68E5
:1047F000254922F470121A601A6842F420121A60D5
:104800005A6A22F47F625A625A6A42F4EE625A622B
:1048100022681E4CA0FB02039B0C0B818B899BB270
:1048200043F00C038B818B8920269BB233438B8111
:104830008B899BB243F400538B8155206E600B88AB
:104840001D06FCD5888014F8010F0028F7D1104907
:10485000684603F001FB9DF8001049B10A4A68461A
:1048600013881B06FCD5918010F8011F0029F7D191
:1048700008B070BD00380240000002401C0100205A
:10488000C5B3A29100E100E000100140AC70010846
:10489000C0700108017841B1044A13881B06FCD599
:1048A000918010F8011F0029F7D1704700100140D6
:1048B00070B5DFF8C0C00546BCE80F008CB002AC94
:1048C0000FC45CF8043B2360BCE80F000DF11C0E24
:1048D000AEE80F000DEB8503DCF80020CEF80020D9
:1048E0009C68DE6900F0FCFC012000F013FD00F084
:1048F00019FD08B90CB070BD6200022308214FF405
:104900008000009600F052FD012000F061FD174A82
:1049100013689B01FCD5022000F08AFD002000F006
:1049200099FD134B40F20562042D1A6009D8012D40
:104930000CD94FF4A05000F097FD4FF4805000F0D8
:104940009DFD0CB0BDE8704000F0D2BA3DB14FF40F
:10495000805000F089FD002000F090FDF1E728462E
:1049600000F082FD284600F089FDEAE700380240A9
:10497000003C0240D070010800B5012185B04FF421
:10498000804000F025FE0021022000F0FDFA012306
:104990004FF4406202A802938DF80E30ADF80C205F
:1049A00001F0F6F8034B019301A800F021FB05B0DC
:1049B0005DF804FB0600000110B5012182B004205F
:1049C00000F0D6FD114B12484FF4F0526946CDE984
:1049D0000023002400F0EAFB4FF4807369460C4882
:1049E00000938DF8044000F0E1FB0F2201230848FA
:1049F000009269468DF807308DF8044000F0D6FB30
:104A0000034A4FF6FF73536102B010BD010300016A
:104A10000008024000B5012183B0082000F0A8FD85
:104A20000B4B0C484FF47F426946CDE9002300F060
:104A3000BDFB012304220748009269468DF804302B
:104A40008DF8073000F0B2FB03B05DF804FB00BF47
:104A500000030001000C024000B5012183B01020CA
:104A600000F086FD054B06484FF6FF726946CDE91A
:104A7000002300F09BFB03B05DF804FB0003000281
:104A80000010024000B5012183B0084600F070FD1F
:104A900000214FF4002000F08FFD032240F201338B
:104AA00004486946CDE9002300F080FB03B05DF8BF
:104AB00004FB00BF0000024030B5012189B0084668
:104AC00000F056FD01214FF4807000F081FD0024BC
:104AD00003223C2369460E488DF8042000930125EB
:104AE0008DF8074000F062FB4FF0007302A90948FF
:104AF0000293CDE9054404948DF81C50ADF80C40A8
:104B000001F048F90348294601F092F909B030BD97
:104B1000000002400020014008B5B8B1012802465B
:104B200012D10E480423032101F0BAF90B4801F019
:104B300005FA0A48022101F0EBFA0028F9D0BDE895
:104B40000840064801F02ABA002008BD03480423A3
:104B50000122022101F0A4F9E8E700BF0020014092
:104B600008B501214FF0805000F026FD012001F032
:104B700089F84FF48020012100F0FAFCBDE80840DC
:104B8000012001F09BB800BF084B19785A78914278
:104B900009D05A781A4410795A78013202F03F024B
:104BA000C0B25A7070470020704700BFE005002077
:104BB000054B1A88920606D59A880449D2B20A7023
:104BC0009B88BFF34F8F7047001001401A010020EF
:104BD0002DE9704F374B384CDFF8F0B093E8030005
:104BE000ADF52A7D0DF10A080B0C4FF0000A01AE5D
:104BF000ADF8081088F80030CDF80BA03060BAF19D
:104C0000000F0CBF0C25042504F5803941462846C9
:104C1000FFF7DEFB314604A8FDF704FA68B104F59E
:104C200080444C4505F10105F0D1244CBAF1000F48
:104C30000FD00DF52A7DBDE8708F214904A8FDF73E
:104C400043FA10B99BF85A3033B904A8FDF724FA97
:104C5000E5E74FF0010AD2E7314610A803F01EF94C
:104C60002F2318490370013003F028F910A90122FD
:104C700020A8FCF7D3FD0028E7D1BAF1000F10D02F
:104C800011494FF480426B4620A8FCF7C7FE0E493D
:104C90004FF48042204603F019F920A8FDF7EAF806
:104CA000D3E76B464FF48042214620A8FCF7B6FEBE
:104CB000F3E700BFF8700108604800200000001012
:104CC000240600203A06002054080020E0050020B9
:104CD0002DE970433B4A0B46054692E80300ADF5CB
:104CE0002C7D0DF10A02ADF80810A5F10C08090C95
:104CF00011705FFA88F10190032918464FF0000304
:104D000001AECDF80F30CDF80B30CDF812301BD9F5
:104D1000291F032914D8DFF8B8901C461146FFF765
:104D200057FB314606A8FDF77DF948B9264B06A882
:104D300003F5AE71FDF7C8F950B106A8FDF7ACF95F
:104D40000DF52C7DBDE87083DFF888900124E5E740
:104D50001D4B93F87221002AEFD0314612A803F0C0
:104D60009DF8194B03F5B9712F230370013003F03F
:104D7000A5F812A9012222A8FCF750FD0028DCD1D9
:104D800074B16B464FF4804209EB883122A8FCF7DE
:104D900045FE0446002CD0D122A8FDF76BF8CCE7E5
:104DA0000A496B464FF4804222A8FCF737FE043DC7
:104DB00009EB8539044605494FF48042484603F023
:104DC00085F8E7E704710108E00500205408002099
:104DD0000000001060480020002300F5804C00F522
:104DE000004100F54042C0E90033CCE90033C1E99D
:104DF0000033C2E90033704788ED00E034EF00E093
:104E0000354A36481368002143F0010382B013602D
:104E10009160136823F0847323F48033136050602F
:104E2000136823F480231360D1600091019113680B
:104E300043F48033136003E0009BB3F5A06F09D007
:104E4000136803F400330193009B01330093019B2B
:104E5000002BF1D0204B1B6813F4003318BF012343
:104E60000193019B012B05D01D4B4FF000629A600E
:104E700002B07047184B1B491A6C1B4842F0805215
:104E80001A640A6842F480420A609A689A609A68D2
:104E900042F400429A609A6842F4A0529A605860C4
:104EA0001A6842F080721A601A689201FCD50F4AA3
:104EB00040F205711160996821F0030199609968C9
:104EC00041F00201A2F580629960936803F00C033F
:104ED000082BFAD1C8E700BF003802401030002488
:104EE00000ED00E00070004008544007003C024024
:104EF000164A936803F00C03042B25D0082B0AD024
:104F0000134B124A134892681349C2F30312825C8E
:104F1000D3400B6070475368516813F4800F536897
:104F200014BF0E4A0A4AC3F3881301F03F01B2FBD3
:104F3000F1F202FB03F3054A5268C2F30142013267
:104F40005200B3FBF2F3DCE7044BDAE7003802402F
:104F50000024F400187101081C01002000127A00DE
:104F600008B501214FF4804000F06EFBBDE8084019
:104F700000214FF4804000F067BB00BF014B186078
:104F8000704700BF0038014001F0FC0303F180438B
:104F900003F59C3301F003019A6889004FF00F0C70
:104FA0000CFA01FC22EA0C029A609A6888401043CD
:104FB00098607047014BC3F8DC007047000027423F
:104FC000014BC3F80004704700002742024B186AE7
:104FD000C0F30020704700BF00380140034B40F091
:104FE000BF6040F40030D860704700BF00ED00E0C3
:104FF00010B50278C378012102F01F044FEA521E57
:10500000A140DBB1104B4478DB686FEA030CCCF3B2
:10501000022C8378CCF10400C0B204FA00F00F2413
:1050200044FA0CF4C0B22340034308481B01024475
:10503000DBB282F8003340F82E1010BD034B0EF1A6
:10504000200E43F82E1010BD00ED00E000E100E05E
:1050500021F06041024B21F07F01014399607047CC
:1050600000ED00E0044A136911B103431361704776
:1050700023EA00031361704700ED00E04FF0E022E7
:10508000042813690CBF43F0040323F004031361E5
:10509000704700BF08B53C4B984222D03B4B98422A
:1050A00029D03B4B984230D03A4B98420FD03A4BE4
:1050B000984234D0394B98423BD0394B984242D039
:1050C000384B984255D0384B984246D008BD012104
:1050D000082000F089FABDE808400021082000F00F
:1050E00083BA0121084600F07FFABDE8084000219C
:1050F000012000F079BA0121022000F075FABDE824
:1051000008400021022000F06FBA0121042000F0C5
:105110006BFABDE808400021042000F065BA0121C7
:10512000102000F061FABDE808400021102000F0D6
:105130005BBA0121202000F057FABDE808400021A9
:10514000202000F051BA0121402000F04DFABDE8C6
:1051500008400021402000F047BA01214FF4807040
:1051600000F042FABDE8084000214FF4807000F0E2
:105170003BBA0121802000F037FABDE80840002149
:10518000802000F031BA00BF00000240000402405D
:1051900000080240000C02400010024000140240CF
:1051A00000180240001C02400020024000222DE9AD
:1051B000F04713460D684FF0010E032604E001335B
:1051C000102B02F1020239D00EFA03FC3CEA05046E
:1051D000F5D1076806FA02F427EA040707600F7999
:1051E000D0F800A007FA02F9013F49EA0A09012FA5
:1051F000A046C0F800906FEA040411D887683C40CC
:1052000084604C79876894403C438460446824EA15
:105210000C0444608C7947689C40A4B23C434460D1
:10522000C46824EA0804C460CC79C7689440013398
:105230003C43102BC46002F10202C5D1BDE8F087E7
:105240004FF6FF720023C0E90023704782B04FF48D
:1052500080330193019B0B430193019BC361C161A7
:10526000019BC361C3690193C369019302B0704795
:1052700000690840003818BF01207047006980B2FB
:10528000704700BF40690840003818BF01207047D0
:10529000406980B2704700BF018370474183704707
:1052A0000AB1018370474183704700BF4161704775
:1052B0004369594041617047CB0800EB830001F01E
:1052C0000701036A89004FF00F0C0CFA01FC23EA76
:1052D0000C030362036A8A401A430262704700BFEC
:1052E0000A4B0B481A68002142F001021A609960CB
:1052F0001A6822F0847222F480321A6058601A68A8
:1053000022F480221A60D960704700BF0038024042
:1053100010300024024B00229A709870704700BF32
:105320000038024082B000230A4A0193136813F444
:10533000003F019B03F101030193019B05D0054B45
:105340001868C0F3404002B07047B3F5A06FEDD1CC
:10535000F5E700BF00380240034A136823F0F80362
:1053600043EAC0031360704700380240014B1860E5
:10537000704700BF00004742084B0022012883F815
:10538000702083F8702006D0042800D070470522D2
:1053900083F87020704783F870007047003802402F
:1053A000014BC3F8800E70470000474210B4019CC7
:1053B00040EA046008435B0804495DF8044B40EA96
:1053C0008210013B40EA03404860704700380240C9
:1053D000014B1866704700BF00004742034B0907A6
:1053E00041EA8011C3F88410704700BF00380240C2
:1053F000014B9866704700BF00004742014BD864DC
:10540000704700BF00004742034A936823F0EC63F3
:105410000B4318439060704700380240034A93687A
:1054200023F078430B4318439060704700380240E4
:10543000034A936823F0030303439360704700BF5C
:1054400000380240024B986800F00C00704700BF23
:1054500000380240034A936823F0F003034393604B
:10546000704700BF00380240034A936823F4E053BA
:1054700003439360704700BF00380240034A9368BB
:1054800023F4604343EAC00393607047003802404E
:105490001E4A936803F00C03042B10B434D0082B7D
:1054A00019D01B4B194A036094681A49C4F30314BA
:1054B0000C5DE34043609468C4F382240C5D23FADE
:1054C00004F4846092685DF8044BC2F342328A5C53
:1054D000D340C36070475368516813F4800F53681A
:1054E00014BF0D4A0A4AC3F3881301F03F01B2FB0F
:1054F000F1F202FB03F3054A5268C2F301420132A2
:105500005200B3FBF2F3CDE7034BCBE70038024088
:105510000024F4002871010800127A0000F440739E
:10552000B3F5407F09D108498A6820F0704323F41D
:10553000407322F4F81213438B60034B1A6FC0F3CD
:105540000B0010431867704700380240014BC3F846
:105550003C0E704700004742014BC3F8400E7047B5
:1055600000004742014BC3F85C017047000047420E
:10557000044A136B11B103431363704723EA00031A
:105580001363704700380240044A536B11B1034360
:105590005363704723EA00035363704700380240A7
:1055A000044A936B11B103439363704723EA0003EA
:1055B0009363704700380240044A136C11B10343EF
:1055C0001364704723EA00031364704700380240F5
:1055D000044A536C11B103435364704723EA000338
:1055E0005364704700380240044A136911B1034301
:1055F0001361704723EA00031361704700380240CB
:10560000044A536911B103435361704723EA00030D
:105610005361704700380240044A936911B1034353
:105620009361704723EA000393617047003802409A
:10563000044A136A11B103431362704723EA00035B
:105640001362704700380240044A536A11B10343A1
:105650005362704723EA00035362704700380240E8
:10566000044A136D11B103431365704723EA000325
:105670001365704700380240044A536D11B103436B
:105680005365704723EA00035365704700380240B2
:10569000044A936D11B103439365704723EA0003F5
:1056A0009365704700380240044A136E11B10343FA
:1056B0001366704723EA0003136670470038024000
:1056C000044A536E11B103435366704723EA000343
:1056D0005366704700380240044A537B11B10343BC
:1056E0005373704723EA0003537370470038024036
:1056F0004309012B0BD0022B094B0CBF1B6F5B6FB7
:1057000000F01F0023FA00F000F001007047044B86
:105710001B6800F01F0023FA00F000F00100704742
:1057200000380240024A536F43F08073536770475A
:1057300000380240034BDB681840003818BF0120D6
:10574000704700BF00380240014B9873704700BF9C
:105750000038024008B52B4B98421BD02A4B984288
:1057600022D02A4B98422BD0294B984206D0294B65
:10577000984231D0284B98423AD008BD01214FF4CD
:105780000020FFF755FFBDE8084000214FF400203E
:10579000FFF74EBF01211020FFF756FFBDE808407C
:1057A00000211020FFF750BF01214FF40030FFF718
:1057B0003FFFBDE8084000214FF40030FFF738BF3D
:1057C00001214FF48020FFF733FFBDE8084000219E
:1057D0004FF48020FFF72CBF01214FF48010FFF71A
:1057E00027FFBDE8084000214FF48010FFF720BFDD
:1057F00001212020FFF728FFBDE8084000212020DC
:10580000FFF722BF00100140004400400048004064
:10581000004C00400050004000140140038ACA8838
:1058200030B59BB223F44053134385B00382828981
:105830008B880D46098922F4B0520B43698922F006
:105840000C020B431204120C9BB213438381838A14
:10585000AA899BB223F440731343838204466846AB
:10586000FFF716FE1B4B9C4205D003F580639C425C
:1058700001D0029B00E0039BA1892A68A589080446
:10588000154803EB83034CBF5200920003EB8303E4
:10589000B3FBF2F3A0FB032149094FF0640C0A01AA
:1058A0000CFB113329040AD41B013233A0FB030380
:1058B000C3F3431313439BB2238105B030BDDB0018
:1058C0003233A0FB0303C3F3421313439BB2238180
:1058D00005B030BD001001401F85EB5100234FF48F
:1058E00016514FF44022C0E9001382608381704753
:1058F0000B88B1F804C0028A00B5B1F802E0C9888B
:1059000043EA0E0343EA0C0392B20B4322F47062A3
:105910009BB2134303825DF804FB00BF00230360C6
:1059200043607047838921B19BB243F40053838164
:10593000704723F400531B041B0C8381704700BF86
:10594000038B03F47F430383038B9BB219430183CF
:10595000704700BF838931B16FEA43436FEA534315
:105960009BB283817047C3F30E038381704700BFEE
:10597000838A21B19BB243F400638382704723F48E
:1059800000631B041B0C8382704700BFC1F3080136
:10599000818070478088C0F308007047038A23F035
:1059A0000F031B041B0C0382038A9BB21943018261
:1059B000704700BF838921B19BB243F0020383810A
:1059C000704723F002031B041B0C8381704700BF48
:1059D000838923F400631B041B0C838183899BB29E
:1059E0000B438381704700BF038A23F020031B040D
:1059F0001B0C0382038A9BB20B430382704700BFD8
:105A0000038A21B19BB243F480430382704723F49D
:105A100080431B041B0C0382704700BF83899BB229
:105A200043F0010383817047838A21B19BB243F025
:105A300008038382704723F008031B041B0C838236
:105A4000704700BF038BDBB20383038B9BB243EA37
:105A500001230383704700BF838A21B19BB243F0C7
:105A600020038382704723F020031B041B0C8382D6
:105A7000704700BF838A21B19BB243F01003838239
:105A8000704723F010031B041B0C8382704700BF78
:105A9000838A23F004031B041B0C8382838A9BB23A
:105AA0000B438382704700BF838A21B19BB243F0CE
:105AB00002038382704723F002031B041B0C8382C2
:105AC000704700BF838A9BB212B10B438382704739
:105AD00023EA01038382704701F01F0CC1F34211D6
